{
  "contractName": "Image",
  "abi": [
    {
      "inputs": [
        {
          "internalType": "string",
          "name": "name",
          "type": "string"
        },
        {
          "internalType": "string",
          "name": "symbol",
          "type": "string"
        }
      ],
      "stateMutability": "nonpayable",
      "type": "constructor"
    },
    {
      "anonymous": false,
      "inputs": [
        {
          "indexed": true,
          "internalType": "address",
          "name": "owner",
          "type": "address"
        },
        {
          "indexed": true,
          "internalType": "address",
          "name": "approved",
          "type": "address"
        },
        {
          "indexed": true,
          "internalType": "uint256",
          "name": "tokenId",
          "type": "uint256"
        }
      ],
      "name": "Approval",
      "type": "event"
    },
    {
      "anonymous": false,
      "inputs": [
        {
          "indexed": true,
          "internalType": "address",
          "name": "owner",
          "type": "address"
        },
        {
          "indexed": true,
          "internalType": "address",
          "name": "operator",
          "type": "address"
        },
        {
          "indexed": false,
          "internalType": "bool",
          "name": "approved",
          "type": "bool"
        }
      ],
      "name": "ApprovalForAll",
      "type": "event"
    },
    {
      "anonymous": false,
      "inputs": [
        {
          "indexed": true,
          "internalType": "address",
          "name": "from",
          "type": "address"
        },
        {
          "indexed": true,
          "internalType": "address",
          "name": "to",
          "type": "address"
        },
        {
          "indexed": true,
          "internalType": "uint256",
          "name": "tokenId",
          "type": "uint256"
        }
      ],
      "name": "Transfer",
      "type": "event"
    },
    {
      "inputs": [
        {
          "internalType": "uint256",
          "name": "",
          "type": "uint256"
        }
      ],
      "name": "Images",
      "outputs": [
        {
          "internalType": "string",
          "name": "",
          "type": "string"
        }
      ],
      "stateMutability": "view",
      "type": "function",
      "constant": true
    },
    {
      "inputs": [
        {
          "internalType": "address",
          "name": "to",
          "type": "address"
        },
        {
          "internalType": "uint256",
          "name": "tokenId",
          "type": "uint256"
        }
      ],
      "name": "approve",
      "outputs": [],
      "stateMutability": "nonpayable",
      "type": "function"
    },
    {
      "inputs": [
        {
          "internalType": "address",
          "name": "owner",
          "type": "address"
        }
      ],
      "name": "balanceOf",
      "outputs": [
        {
          "internalType": "uint256",
          "name": "",
          "type": "uint256"
        }
      ],
      "stateMutability": "view",
      "type": "function",
      "constant": true
    },
    {
      "inputs": [
        {
          "internalType": "uint256",
          "name": "tokenId",
          "type": "uint256"
        }
      ],
      "name": "getApproved",
      "outputs": [
        {
          "internalType": "address",
          "name": "",
          "type": "address"
        }
      ],
      "stateMutability": "view",
      "type": "function",
      "constant": true
    },
    {
      "inputs": [
        {
          "internalType": "address",
          "name": "owner",
          "type": "address"
        },
        {
          "internalType": "address",
          "name": "operator",
          "type": "address"
        }
      ],
      "name": "isApprovedForAll",
      "outputs": [
        {
          "internalType": "bool",
          "name": "",
          "type": "bool"
        }
      ],
      "stateMutability": "view",
      "type": "function",
      "constant": true
    },
    {
      "inputs": [],
      "name": "name",
      "outputs": [
        {
          "internalType": "string",
          "name": "",
          "type": "string"
        }
      ],
      "stateMutability": "view",
      "type": "function",
      "constant": true
    },
    {
      "inputs": [
        {
          "internalType": "uint256",
          "name": "tokenId",
          "type": "uint256"
        }
      ],
      "name": "ownerOf",
      "outputs": [
        {
          "internalType": "address",
          "name": "",
          "type": "address"
        }
      ],
      "stateMutability": "view",
      "type": "function",
      "constant": true
    },
    {
      "inputs": [
        {
          "internalType": "address",
          "name": "from",
          "type": "address"
        },
        {
          "internalType": "address",
          "name": "to",
          "type": "address"
        },
        {
          "internalType": "uint256",
          "name": "tokenId",
          "type": "uint256"
        }
      ],
      "name": "safeTransferFrom",
      "outputs": [],
      "stateMutability": "nonpayable",
      "type": "function"
    },
    {
      "inputs": [
        {
          "internalType": "address",
          "name": "from",
          "type": "address"
        },
        {
          "internalType": "address",
          "name": "to",
          "type": "address"
        },
        {
          "internalType": "uint256",
          "name": "tokenId",
          "type": "uint256"
        },
        {
          "internalType": "bytes",
          "name": "_data",
          "type": "bytes"
        }
      ],
      "name": "safeTransferFrom",
      "outputs": [],
      "stateMutability": "nonpayable",
      "type": "function"
    },
    {
      "inputs": [
        {
          "internalType": "address",
          "name": "operator",
          "type": "address"
        },
        {
          "internalType": "bool",
          "name": "approved",
          "type": "bool"
        }
      ],
      "name": "setApprovalForAll",
      "outputs": [],
      "stateMutability": "nonpayable",
      "type": "function"
    },
    {
      "inputs": [
        {
          "internalType": "bytes4",
          "name": "interfaceId",
          "type": "bytes4"
        }
      ],
      "name": "supportsInterface",
      "outputs": [
        {
          "internalType": "bool",
          "name": "",
          "type": "bool"
        }
      ],
      "stateMutability": "view",
      "type": "function",
      "constant": true
    },
    {
      "inputs": [],
      "name": "symbol",
      "outputs": [
        {
          "internalType": "string",
          "name": "",
          "type": "string"
        }
      ],
      "stateMutability": "view",
      "type": "function",
      "constant": true
    },
    {
      "inputs": [
        {
          "internalType": "uint256",
          "name": "index",
          "type": "uint256"
        }
      ],
      "name": "tokenByIndex",
      "outputs": [
        {
          "internalType": "uint256",
          "name": "",
          "type": "uint256"
        }
      ],
      "stateMutability": "view",
      "type": "function",
      "constant": true
    },
    {
      "inputs": [
        {
          "internalType": "address",
          "name": "owner",
          "type": "address"
        },
        {
          "internalType": "uint256",
          "name": "index",
          "type": "uint256"
        }
      ],
      "name": "tokenOfOwnerByIndex",
      "outputs": [
        {
          "internalType": "uint256",
          "name": "",
          "type": "uint256"
        }
      ],
      "stateMutability": "view",
      "type": "function",
      "constant": true
    },
    {
      "inputs": [
        {
          "internalType": "uint256",
          "name": "tokenId",
          "type": "uint256"
        }
      ],
      "name": "tokenURI",
      "outputs": [
        {
          "internalType": "string",
          "name": "",
          "type": "string"
        }
      ],
      "stateMutability": "view",
      "type": "function",
      "constant": true
    },
    {
      "inputs": [
        {
          "internalType": "address",
          "name": "from",
          "type": "address"
        },
        {
          "internalType": "address",
          "name": "to",
          "type": "address"
        },
        {
          "internalType": "uint256",
          "name": "tokenId",
          "type": "uint256"
        }
      ],
      "name": "transferFrom",
      "outputs": [],
      "stateMutability": "nonpayable",
      "type": "function"
    },
    {
      "inputs": [
        {
          "internalType": "string",
          "name": "_img",
          "type": "string"
        }
      ],
      "name": "mint",
      "outputs": [],
      "stateMutability": "nonpayable",
      "type": "function"
    },
    {
      "inputs": [],
      "name": "totalSupply",
      "outputs": [
        {
          "internalType": "uint256",
          "name": "",
          "type": "uint256"
        }
      ],
      "stateMutability": "view",
      "type": "function",
      "constant": true
    }
  ],
  "bytecode": "0x60806040523480156200001157600080fd5b50604051620034e7380380620034e7833981810160405281019062000037919062000197565b818181600090805190602001906200005192919062000075565b5080600190805190602001906200006a92919062000075565b50505050506200033b565b8280546200008390620002a7565b90600052602060002090601f016020900481019282620000a75760008555620000f3565b82601f10620000c257805160ff1916838001178555620000f3565b82800160010185558215620000f3579182015b82811115620000f2578251825591602001919060010190620000d5565b5b50905062000102919062000106565b5090565b5b808211156200012157600081600090555060010162000107565b5090565b60006200013c62000136846200023e565b6200020a565b9050828152602081018484840111156200015557600080fd5b6200016284828562000271565b509392505050565b600082601f8301126200017c57600080fd5b81516200018e84826020860162000125565b91505092915050565b60008060408385031215620001ab57600080fd5b600083015167ffffffffffffffff811115620001c657600080fd5b620001d4858286016200016a565b925050602083015167ffffffffffffffff811115620001f257600080fd5b62000200858286016200016a565b9150509250929050565b6000604051905081810181811067ffffffffffffffff821117156200023457620002336200030c565b5b8060405250919050565b600067ffffffffffffffff8211156200025c576200025b6200030c565b5b601f19601f8301169050602081019050919050565b60005b838110156200029157808201518184015260208101905062000274565b83811115620002a1576000848401525b50505050565b60006002820490506001821680620002c057607f821691505b60208210811415620002d757620002d6620002dd565b5b50919050565b7f4e487b7100000000000000000000000000000000000000000000000000000000600052602260045260246000fd5b7f4e487b7100000000000000000000000000000000000000000000000000000000600052604160045260246000fd5b61319c806200034b6000396000f3fe608060405234801561001057600080fd5b50600436106101165760003560e01c80636352211e116100a2578063b88d4fde11610071578063b88d4fde14610305578063c87b56dd14610321578063d2f550bf14610351578063d85d3d2714610381578063e985e9c51461039d57610116565b80636352211e1461026b57806370a082311461029b57806395d89b41146102cb578063a22cb465146102e957610116565b806318160ddd116100e957806318160ddd146101b557806323b872dd146101d35780632f745c59146101ef57806342842e0e1461021f5780634f6ccce71461023b57610116565b806301ffc9a71461011b57806306fdde031461014b578063081812fc14610169578063095ea7b314610199575b600080fd5b61013560048036038101906101309190612278565b6103cd565b6040516101429190612ad4565b60405180910390f35b610153610447565b6040516101609190612aef565b60405180910390f35b610183600480360381019061017e919061230b565b6104d9565b6040516101909190612a6d565b60405180910390f35b6101b360048036038101906101ae919061223c565b61055e565b005b6101bd610676565b6040516101ca9190612d31565b60405180910390f35b6101ed60048036038101906101e89190612136565b610685565b005b6102096004803603810190610204919061223c565b6106e5565b6040516102169190612d31565b60405180910390f35b61023960048036038101906102349190612136565b61078a565b005b6102556004803603810190610250919061230b565b6107aa565b6040516102629190612d31565b60405180910390f35b6102856004803603810190610280919061230b565b610841565b6040516102929190612a6d565b60405180910390f35b6102b560048036038101906102b091906120d1565b6108f3565b6040516102c29190612d31565b60405180910390f35b6102d36109ab565b6040516102e09190612aef565b60405180910390f35b61030360048036038101906102fe9190612200565b610a3d565b005b61031f600480360381019061031a9190612185565b610a53565b005b61033b6004803603810190610336919061230b565b610ab5565b6040516103489190612aef565b60405180910390f35b61036b6004803603810190610366919061230b565b610b5c565b6040516103789190612aef565b60405180910390f35b61039b600480360381019061039691906122ca565b610c08565b005b6103b760048036038101906103b291906120fa565b610d0b565b6040516103c49190612ad4565b60405180910390f35b60007f780e9d63000000000000000000000000000000000000000000000000000000007bffffffffffffffffffffffffffffffffffffffffffffffffffffffff1916827bffffffffffffffffffffffffffffffffffffffffffffffffffffffff19161480610440575061043f82610d9f565b5b9050919050565b60606000805461045690612f91565b80601f016020809104026020016040519081016040528092919081815260200182805461048290612f91565b80156104cf5780601f106104a4576101008083540402835291602001916104cf565b820191906000526020600020905b8154815290600101906020018083116104b257829003601f168201915b5050505050905090565b60006104e482610e81565b610523576040517f08c379a000000000000000000000000000000000000000000000000000000000815260040161051a90612c71565b60405180910390fd5b6004600083815260200190815260200160002060009054906101000a900473ffffffffffffffffffffffffffffffffffffffff169050919050565b600061056982610841565b90508073ffffffffffffffffffffffffffffffffffffffff168373ffffffffffffffffffffffffffffffffffffffff1614156105da576040517f08c379a00000000000000000000000000000000000000000000000000000000081526004016105d190612cd1565b60405180910390fd5b8073ffffffffffffffffffffffffffffffffffffffff166105f9610eed565b73ffffffffffffffffffffffffffffffffffffffff161480610628575061062781610622610eed565b610d0b565b5b610667576040517f08c379a000000000000000000000000000000000000000000000000000000000815260040161065e90612bf1565b60405180910390fd5b6106718383610ef5565b505050565b6000610680610fae565b905090565b610696610690610eed565b82610fbb565b6106d5576040517f08c379a00000000000000000000000000000000000000000000000000000000081526004016106cc90612cf1565b60405180910390fd5b6106e0838383611099565b505050565b60006106f0836108f3565b8210610731576040517f08c379a000000000000000000000000000000000000000000000000000000000815260040161072890612b11565b60405180910390fd5b600660008473ffffffffffffffffffffffffffffffffffffffff1673ffffffffffffffffffffffffffffffffffffffff168152602001908152602001600020600083815260200190815260200160002054905092915050565b6107a583838360405180602001604052806000815250610a53565b505050565b60006107b4610fae565b82106107f5576040517f08c379a00000000000000000000000000000000000000000000000000000000081526004016107ec90612d11565b60405180910390fd5b6008828154811061082f577f4e487b7100000000000000000000000000000000000000000000000000000000600052603260045260246000fd5b90600052602060002001549050919050565b6000806002600084815260200190815260200160002060009054906101000a900473ffffffffffffffffffffffffffffffffffffffff169050600073ffffffffffffffffffffffffffffffffffffffff168173ffffffffffffffffffffffffffffffffffffffff1614156108ea576040517f08c379a00000000000000000000000000000000000000000000000000000000081526004016108e190612c31565b60405180910390fd5b80915050919050565b60008073ffffffffffffffffffffffffffffffffffffffff168273ffffffffffffffffffffffffffffffffffffffff161415610964576040517f08c379a000000000000000000000000000000000000000000000000000000000815260040161095b90612c11565b60405180910390fd5b600360008373ffffffffffffffffffffffffffffffffffffffff1673ffffffffffffffffffffffffffffffffffffffff168152602001908152602001600020549050919050565b6060600180546109ba90612f91565b80601f01602080910402602001604051908101604052809291908181526020018280546109e690612f91565b8015610a335780601f10610a0857610100808354040283529160200191610a33565b820191906000526020600020905b815481529060010190602001808311610a1657829003601f168201915b5050505050905090565b610a4f610a48610eed565b83836112f5565b5050565b610a64610a5e610eed565b83610fbb565b610aa3576040517f08c379a0000000000000000000000000000000000000000000000000000000008152600401610a9a90612cf1565b60405180910390fd5b610aaf84848484611462565b50505050565b6060610ac082610e81565b610aff576040517f08c379a0000000000000000000000000000000000000000000000000000000008152600401610af690612cb1565b60405180910390fd5b6000610b096114be565b90506000815111610b295760405180602001604052806000815250610b54565b80610b33846114d5565b604051602001610b44929190612a49565b6040516020818303038152906040525b915050919050565b600a8181548110610b6c57600080fd5b906000526020600020016000915090508054610b8790612f91565b80601f0160208091040260200160405190810160405280929190818152602001828054610bb390612f91565b8015610c005780601f10610bd557610100808354040283529160200191610c00565b820191906000526020600020905b815481529060010190602001808311610be357829003601f168201915b505050505081565b600b81604051610c189190612a32565b908152602001604051809103902060009054906101000a900460ff1615610c74576040517f08c379a0000000000000000000000000000000000000000000000000000000008152600401610c6b90612b31565b60405180910390fd5b600a81908060018154018082558091505060019003906000526020600020016000909190919091509080519060200190610caf929190611ef5565b5060006001600a80549050610cc49190612ea7565b9050610cd03382611682565b6001600b83604051610ce29190612a32565b908152602001604051809103902060006101000a81548160ff0219169083151502179055505050565b6000600560008473ffffffffffffffffffffffffffffffffffffffff1673ffffffffffffffffffffffffffffffffffffffff16815260200190815260200160002060008373ffffffffffffffffffffffffffffffffffffffff1673ffffffffffffffffffffffffffffffffffffffff16815260200190815260200160002060009054906101000a900460ff16905092915050565b60007f80ac58cd000000000000000000000000000000000000000000000000000000007bffffffffffffffffffffffffffffffffffffffffffffffffffffffff1916827bffffffffffffffffffffffffffffffffffffffffffffffffffffffff19161480610e6a57507f5b5e139f000000000000000000000000000000000000000000000000000000007bffffffffffffffffffffffffffffffffffffffffffffffffffffffff1916827bffffffffffffffffffffffffffffffffffffffffffffffffffffffff1916145b80610e7a5750610e7982611850565b5b9050919050565b60008073ffffffffffffffffffffffffffffffffffffffff166002600084815260200190815260200160002060009054906101000a900473ffffffffffffffffffffffffffffffffffffffff1673ffffffffffffffffffffffffffffffffffffffff1614159050919050565b600033905090565b816004600083815260200190815260200160002060006101000a81548173ffffffffffffffffffffffffffffffffffffffff021916908373ffffffffffffffffffffffffffffffffffffffff160217905550808273ffffffffffffffffffffffffffffffffffffffff16610f6883610841565b73ffffffffffffffffffffffffffffffffffffffff167f8c5be1e5ebec7d5bd14f71427d1e84f3dd0314c0f7b2291e5b200ac8c7c3b92560405160405180910390a45050565b6000600880549050905090565b6000610fc682610e81565b611005576040517f08c379a0000000000000000000000000000000000000000000000000000000008152600401610ffc90612bd1565b60405180910390fd5b600061101083610841565b90508073ffffffffffffffffffffffffffffffffffffffff168473ffffffffffffffffffffffffffffffffffffffff16148061107f57508373ffffffffffffffffffffffffffffffffffffffff16611067846104d9565b73ffffffffffffffffffffffffffffffffffffffff16145b80611090575061108f8185610d0b565b5b91505092915050565b8273ffffffffffffffffffffffffffffffffffffffff166110b982610841565b73ffffffffffffffffffffffffffffffffffffffff161461110f576040517f08c379a000000000000000000000000000000000000000000000000000000000815260040161110690612c91565b60405180910390fd5b600073ffffffffffffffffffffffffffffffffffffffff168273ffffffffffffffffffffffffffffffffffffffff16141561117f576040517f08c379a000000000000000000000000000000000000000000000000000000000815260040161117690612b91565b60405180910390fd5b61118a8383836118ba565b611195600082610ef5565b6001600360008573ffffffffffffffffffffffffffffffffffffffff1673ffffffffffffffffffffffffffffffffffffffff16815260200190815260200160002060008282546111e59190612ea7565b925050819055506001600360008473ffffffffffffffffffffffffffffffffffffffff1673ffffffffffffffffffffffffffffffffffffffff168152602001908152602001600020600082825461123c9190612e20565b92505081905550816002600083815260200190815260200160002060006101000a81548173ffffffffffffffffffffffffffffffffffffffff021916908373ffffffffffffffffffffffffffffffffffffffff160217905550808273ffffffffffffffffffffffffffffffffffffffff168473ffffffffffffffffffffffffffffffffffffffff167fddf252ad1be2c89b69c2b068fc378daa952ba7f163c4a11628f55a4df523b3ef60405160405180910390a4505050565b8173ffffffffffffffffffffffffffffffffffffffff168373ffffffffffffffffffffffffffffffffffffffff161415611364576040517f08c379a000000000000000000000000000000000000000000000000000000000815260040161135b90612bb1565b60405180910390fd5b80600560008573ffffffffffffffffffffffffffffffffffffffff1673ffffffffffffffffffffffffffffffffffffffff16815260200190815260200160002060008473ffffffffffffffffffffffffffffffffffffffff1673ffffffffffffffffffffffffffffffffffffffff16815260200190815260200160002060006101000a81548160ff0219169083151502179055508173ffffffffffffffffffffffffffffffffffffffff168373ffffffffffffffffffffffffffffffffffffffff167f17307eab39ab6107e8899845ad3d59bd9653f200f220920489ca2b5937696c31836040516114559190612ad4565b60405180910390a3505050565b61146d848484611099565b611479848484846119ce565b6114b8576040517f08c379a00000000000000000000000000000000000000000000000000000000081526004016114af90612b51565b60405180910390fd5b50505050565b606060405180602001604052806000815250905090565b6060600082141561151d576040518060400160405280600181526020017f3000000000000000000000000000000000000000000000000000000000000000815250905061167d565b600082905060005b6000821461154f57808061153890612fc3565b915050600a826115489190612e76565b9150611525565b60008167ffffffffffffffff811115611591577f4e487b7100000000000000000000000000000000000000000000000000000000600052604160045260246000fd5b6040519080825280601f01601f1916602001820160405280156115c35781602001600182028036833780820191505090505b5090505b60008514611676576001826115dc9190612ea7565b9150600a856115eb919061300c565b60306115f79190612e20565b60f81b818381518110611633577f4e487b7100000000000000000000000000000000000000000000000000000000600052603260045260246000fd5b60200101907effffffffffffffffffffffffffffffffffffffffffffffffffffffffffffff1916908160001a905350600a8561166f9190612e76565b94506115c7565b8093505050505b919050565b600073ffffffffffffffffffffffffffffffffffffffff168273ffffffffffffffffffffffffffffffffffffffff1614156116f2576040517f08c379a00000000000000000000000000000000000000000000000000000000081526004016116e990612c51565b60405180910390fd5b6116fb81610e81565b1561173b576040517f08c379a000000000000000000000000000000000000000000000000000000000815260040161173290612b71565b60405180910390fd5b611747600083836118ba565b6001600360008473ffffffffffffffffffffffffffffffffffffffff1673ffffffffffffffffffffffffffffffffffffffff16815260200190815260200160002060008282546117979190612e20565b92505081905550816002600083815260200190815260200160002060006101000a81548173ffffffffffffffffffffffffffffffffffffffff021916908373ffffffffffffffffffffffffffffffffffffffff160217905550808273ffffffffffffffffffffffffffffffffffffffff16600073ffffffffffffffffffffffffffffffffffffffff167fddf252ad1be2c89b69c2b068fc378daa952ba7f163c4a11628f55a4df523b3ef60405160405180910390a45050565b60007f01ffc9a7000000000000000000000000000000000000000000000000000000007bffffffffffffffffffffffffffffffffffffffffffffffffffffffff1916827bffffffffffffffffffffffffffffffffffffffffffffffffffffffff1916149050919050565b6118c5838383611b65565b600073ffffffffffffffffffffffffffffffffffffffff168373ffffffffffffffffffffffffffffffffffffffff1614156119085761190381611b6a565b611947565b8173ffffffffffffffffffffffffffffffffffffffff168373ffffffffffffffffffffffffffffffffffffffff1614611946576119458382611bb3565b5b5b600073ffffffffffffffffffffffffffffffffffffffff168273ffffffffffffffffffffffffffffffffffffffff16141561198a5761198581611d20565b6119c9565b8273ffffffffffffffffffffffffffffffffffffffff168273ffffffffffffffffffffffffffffffffffffffff16146119c8576119c78282611e63565b5b5b505050565b60006119ef8473ffffffffffffffffffffffffffffffffffffffff16611ee2565b15611b58578373ffffffffffffffffffffffffffffffffffffffff1663150b7a02611a18610eed565b8786866040518563ffffffff1660e01b8152600401611a3a9493929190612a88565b602060405180830381600087803b158015611a5457600080fd5b505af1925050508015611a8557506040513d601f19601f82011682018060405250810190611a8291906122a1565b60015b611b08573d8060008114611ab5576040519150601f19603f3d011682016040523d82523d6000602084013e611aba565b606091505b50600081511415611b00576040517f08c379a0000000000000000000000000000000000000000000000000000000008152600401611af790612b51565b60405180910390fd5b805181602001fd5b63150b7a0260e01b7bffffffffffffffffffffffffffffffffffffffffffffffffffffffff1916817bffffffffffffffffffffffffffffffffffffffffffffffffffffffff191614915050611b5d565b600190505b949350505050565b505050565b6008805490506009600083815260200190815260200160002081905550600881908060018154018082558091505060019003906000526020600020016000909190919091505550565b60006001611bc0846108f3565b611bca9190612ea7565b9050600060076000848152602001908152602001600020549050818114611caf576000600660008673ffffffffffffffffffffffffffffffffffffffff1673ffffffffffffffffffffffffffffffffffffffff168152602001908152602001600020600084815260200190815260200160002054905080600660008773ffffffffffffffffffffffffffffffffffffffff1673ffffffffffffffffffffffffffffffffffffffff168152602001908152602001600020600084815260200190815260200160002081905550816007600083815260200190815260200160002081905550505b6007600084815260200190815260200160002060009055600660008573ffffffffffffffffffffffffffffffffffffffff1673ffffffffffffffffffffffffffffffffffffffff16815260200190815260200160002060008381526020019081526020016000206000905550505050565b60006001600880549050611d349190612ea7565b9050600060096000848152602001908152602001600020549050600060088381548110611d8a577f4e487b7100000000000000000000000000000000000000000000000000000000600052603260045260246000fd5b906000526020600020015490508060088381548110611dd2577f4e487b7100000000000000000000000000000000000000000000000000000000600052603260045260246000fd5b906000526020600020018190555081600960008381526020019081526020016000208190555060096000858152602001908152602001600020600090556008805480611e47577f4e487b7100000000000000000000000000000000000000000000000000000000600052603160045260246000fd5b6001900381819060005260206000200160009055905550505050565b6000611e6e836108f3565b905081600660008573ffffffffffffffffffffffffffffffffffffffff1673ffffffffffffffffffffffffffffffffffffffff168152602001908152602001600020600083815260200190815260200160002081905550806007600084815260200190815260200160002081905550505050565b600080823b905060008111915050919050565b828054611f0190612f91565b90600052602060002090601f016020900481019282611f235760008555611f6a565b82601f10611f3c57805160ff1916838001178555611f6a565b82800160010185558215611f6a579182015b82811115611f69578251825591602001919060010190611f4e565b5b509050611f779190611f7b565b5090565b5b80821115611f94576000816000905550600101611f7c565b5090565b6000611fab611fa684612d7d565b612d4c565b905082815260208101848484011115611fc357600080fd5b611fce848285612f4f565b509392505050565b6000611fe9611fe484612dad565b612d4c565b90508281526020810184848401111561200157600080fd5b61200c848285612f4f565b509392505050565b6000813590506120238161310a565b92915050565b60008135905061203881613121565b92915050565b60008135905061204d81613138565b92915050565b60008151905061206281613138565b92915050565b600082601f83011261207957600080fd5b8135612089848260208601611f98565b91505092915050565b600082601f8301126120a357600080fd5b81356120b3848260208601611fd6565b91505092915050565b6000813590506120cb8161314f565b92915050565b6000602082840312156120e357600080fd5b60006120f184828501612014565b91505092915050565b6000806040838503121561210d57600080fd5b600061211b85828601612014565b925050602061212c85828601612014565b9150509250929050565b60008060006060848603121561214b57600080fd5b600061215986828701612014565b935050602061216a86828701612014565b925050604061217b868287016120bc565b9150509250925092565b6000806000806080858703121561219b57600080fd5b60006121a987828801612014565b94505060206121ba87828801612014565b93505060406121cb878288016120bc565b925050606085013567ffffffffffffffff8111156121e857600080fd5b6121f487828801612068565b91505092959194509250565b6000806040838503121561221357600080fd5b600061222185828601612014565b925050602061223285828601612029565b9150509250929050565b6000806040838503121561224f57600080fd5b600061225d85828601612014565b925050602061226e858286016120bc565b9150509250929050565b60006020828403121561228a57600080fd5b60006122988482850161203e565b91505092915050565b6000602082840312156122b357600080fd5b60006122c184828501612053565b91505092915050565b6000602082840312156122dc57600080fd5b600082013567ffffffffffffffff8111156122f657600080fd5b61230284828501612092565b91505092915050565b60006020828403121561231d57600080fd5b600061232b848285016120bc565b91505092915050565b61233d81612edb565b82525050565b61234c81612eed565b82525050565b600061235d82612ddd565b6123678185612df3565b9350612377818560208601612f5e565b612380816130f9565b840191505092915050565b600061239682612de8565b6123a08185612e04565b93506123b0818560208601612f5e565b6123b9816130f9565b840191505092915050565b60006123cf82612de8565b6123d98185612e15565b93506123e9818560208601612f5e565b80840191505092915050565b6000612402602b83612e04565b91507f455243373231456e756d657261626c653a206f776e657220696e646578206f7560008301527f74206f6620626f756e64730000000000000000000000000000000000000000006020830152604082019050919050565b6000612468601883612e04565b91507f74686520696d61676520616c72656164792065786973747300000000000000006000830152602082019050919050565b60006124a8603283612e04565b91507f4552433732313a207472616e7366657220746f206e6f6e20455243373231526560008301527f63656976657220696d706c656d656e74657200000000000000000000000000006020830152604082019050919050565b600061250e601c83612e04565b91507f4552433732313a20746f6b656e20616c7265616479206d696e746564000000006000830152602082019050919050565b600061254e602483612e04565b91507f4552433732313a207472616e7366657220746f20746865207a65726f2061646460008301527f72657373000000000000000000000000000000000000000000000000000000006020830152604082019050919050565b60006125b4601983612e04565b91507f4552433732313a20617070726f766520746f2063616c6c6572000000000000006000830152602082019050919050565b60006125f4602c83612e04565b91507f4552433732313a206f70657261746f7220717565727920666f72206e6f6e657860008301527f697374656e7420746f6b656e00000000000000000000000000000000000000006020830152604082019050919050565b600061265a603883612e04565b91507f4552433732313a20617070726f76652063616c6c6572206973206e6f74206f7760008301527f6e6572206e6f7220617070726f76656420666f7220616c6c00000000000000006020830152604082019050919050565b60006126c0602a83612e04565b91507f4552433732313a2062616c616e636520717565727920666f7220746865207a6560008301527f726f2061646472657373000000000000000000000000000000000000000000006020830152604082019050919050565b6000612726602983612e04565b91507f4552433732313a206f776e657220717565727920666f72206e6f6e657869737460008301527f656e7420746f6b656e00000000000000000000000000000000000000000000006020830152604082019050919050565b600061278c602083612e04565b91507f4552433732313a206d696e7420746f20746865207a65726f20616464726573736000830152602082019050919050565b60006127cc602c83612e04565b91507f4552433732313a20617070726f76656420717565727920666f72206e6f6e657860008301527f697374656e7420746f6b656e00000000000000000000000000000000000000006020830152604082019050919050565b6000612832602983612e04565b91507f4552433732313a207472616e73666572206f6620746f6b656e2074686174206960008301527f73206e6f74206f776e00000000000000000000000000000000000000000000006020830152604082019050919050565b6000612898602f83612e04565b91507f4552433732314d657461646174613a2055524920717565727920666f72206e6f60008301527f6e6578697374656e7420746f6b656e00000000000000000000000000000000006020830152604082019050919050565b60006128fe602183612e04565b91507f4552433732313a20617070726f76616c20746f2063757272656e74206f776e6560008301527f72000000000000000000000000000000000000000000000000000000000000006020830152604082019050919050565b6000612964603183612e04565b91507f4552433732313a207472616e736665722063616c6c6572206973206e6f74206f60008301527f776e6572206e6f7220617070726f7665640000000000000000000000000000006020830152604082019050919050565b60006129ca602c83612e04565b91507f455243373231456e756d657261626c653a20676c6f62616c20696e646578206f60008301527f7574206f6620626f756e647300000000000000000000000000000000000000006020830152604082019050919050565b612a2c81612f45565b82525050565b6000612a3e82846123c4565b915081905092915050565b6000612a5582856123c4565b9150612a6182846123c4565b91508190509392505050565b6000602082019050612a826000830184612334565b92915050565b6000608082019050612a9d6000830187612334565b612aaa6020830186612334565b612ab76040830185612a23565b8181036060830152612ac98184612352565b905095945050505050565b6000602082019050612ae96000830184612343565b92915050565b60006020820190508181036000830152612b09818461238b565b905092915050565b60006020820190508181036000830152612b2a816123f5565b9050919050565b60006020820190508181036000830152612b4a8161245b565b9050919050565b60006020820190508181036000830152612b6a8161249b565b9050919050565b60006020820190508181036000830152612b8a81612501565b9050919050565b60006020820190508181036000830152612baa81612541565b9050919050565b60006020820190508181036000830152612bca816125a7565b9050919050565b60006020820190508181036000830152612bea816125e7565b9050919050565b60006020820190508181036000830152612c0a8161264d565b9050919050565b60006020820190508181036000830152612c2a816126b3565b9050919050565b60006020820190508181036000830152612c4a81612719565b9050919050565b60006020820190508181036000830152612c6a8161277f565b9050919050565b60006020820190508181036000830152612c8a816127bf565b9050919050565b60006020820190508181036000830152612caa81612825565b9050919050565b60006020820190508181036000830152612cca8161288b565b9050919050565b60006020820190508181036000830152612cea816128f1565b9050919050565b60006020820190508181036000830152612d0a81612957565b9050919050565b60006020820190508181036000830152612d2a816129bd565b9050919050565b6000602082019050612d466000830184612a23565b92915050565b6000604051905081810181811067ffffffffffffffff82111715612d7357612d726130ca565b5b8060405250919050565b600067ffffffffffffffff821115612d9857612d976130ca565b5b601f19601f8301169050602081019050919050565b600067ffffffffffffffff821115612dc857612dc76130ca565b5b601f19601f8301169050602081019050919050565b600081519050919050565b600081519050919050565b600082825260208201905092915050565b600082825260208201905092915050565b600081905092915050565b6000612e2b82612f45565b9150612e3683612f45565b9250827fffffffffffffffffffffffffffffffffffffffffffffffffffffffffffffffff03821115612e6b57612e6a61303d565b5b828201905092915050565b6000612e8182612f45565b9150612e8c83612f45565b925082612e9c57612e9b61306c565b5b828204905092915050565b6000612eb282612f45565b9150612ebd83612f45565b925082821015612ed057612ecf61303d565b5b828203905092915050565b6000612ee682612f25565b9050919050565b60008115159050919050565b60007fffffffff0000000000000000000000000000000000000000000000000000000082169050919050565b600073ffffffffffffffffffffffffffffffffffffffff82169050919050565b6000819050919050565b82818337600083830152505050565b60005b83811015612f7c578082015181840152602081019050612f61565b83811115612f8b576000848401525b50505050565b60006002820490506001821680612fa957607f821691505b60208210811415612fbd57612fbc61309b565b5b50919050565b6000612fce82612f45565b91507fffffffffffffffffffffffffffffffffffffffffffffffffffffffffffffffff8214156130015761300061303d565b5b600182019050919050565b600061301782612f45565b915061302283612f45565b9250826130325761303161306c565b5b828206905092915050565b7f4e487b7100000000000000000000000000000000000000000000000000000000600052601160045260246000fd5b7f4e487b7100000000000000000000000000000000000000000000000000000000600052601260045260246000fd5b7f4e487b7100000000000000000000000000000000000000000000000000000000600052602260045260246000fd5b7f4e487b7100000000000000000000000000000000000000000000000000000000600052604160045260246000fd5b6000601f19601f8301169050919050565b61311381612edb565b811461311e57600080fd5b50565b61312a81612eed565b811461313557600080fd5b50565b61314181612ef9565b811461314c57600080fd5b50565b61315881612f45565b811461316357600080fd5b5056fea26469706673582212204c8f6ea5eba5d877b643f1fba59f9a3f83acddc257c051ef17229ac26fed6a4a64736f6c63430008000033",
  "immutableReferences": {},
  "source": "// SPDX-License-Identifier: MIT\npragma solidity ^0.8.0;\n\nimport \"@openzeppelin/contracts/token/ERC721/ERC721.sol\";\nimport \"@openzeppelin/contracts/token/ERC721/extensions/ERC721Enumerable.sol\";\n\ncontract Image is ERC721Enumerable {\n    string [] public Images;\n    mapping(string => bool) private _imageExists;\n\n    constructor (string memory name, string memory symbol) ERC721(name, symbol) {\n\n    }\n\n    function mint(string memory _img) public {\n        require(!_imageExists[_img], \"the image already exists\");\n\n        Images.push(_img);\n        uint256 _id = Images.length - 1;\n        _mint(msg.sender, _id);\n        _imageExists[_img] = true;\n    }\n\n    function totalSupply() override view public returns(uint) {\n        return super.totalSupply();\n    }\n}",
  "sourcePath": "E:\\Coding\\Web3\\Web3 master\\Erc721TA\\app\\contracts\\Image.sol",
  "compiler": {
    "name": "solc",
    "version": "0.8.0+commit.c7dfd78e.Emscripten.clang"
  },
  "schemaVersion": "3.4.16",
  "updatedAt": "2025-01-12T09:48:30.671Z",
  "networkType": "ethereum",
  "devdoc": {
    "kind": "dev",
    "methods": {
      "approve(address,uint256)": {
        "details": "See {IERC721-approve}."
      },
      "balanceOf(address)": {
        "details": "See {IERC721-balanceOf}."
      },
      "getApproved(uint256)": {
        "details": "See {IERC721-getApproved}."
      },
      "isApprovedForAll(address,address)": {
        "details": "See {IERC721-isApprovedForAll}."
      },
      "name()": {
        "details": "See {IERC721Metadata-name}."
      },
      "ownerOf(uint256)": {
        "details": "See {IERC721-ownerOf}."
      },
      "safeTransferFrom(address,address,uint256)": {
        "details": "See {IERC721-safeTransferFrom}."
      },
      "safeTransferFrom(address,address,uint256,bytes)": {
        "details": "See {IERC721-safeTransferFrom}."
      },
      "setApprovalForAll(address,bool)": {
        "details": "See {IERC721-setApprovalForAll}."
      },
      "supportsInterface(bytes4)": {
        "details": "See {IERC165-supportsInterface}."
      },
      "symbol()": {
        "details": "See {IERC721Metadata-symbol}."
      },
      "tokenByIndex(uint256)": {
        "details": "See {IERC721Enumerable-tokenByIndex}."
      },
      "tokenOfOwnerByIndex(address,uint256)": {
        "details": "See {IERC721Enumerable-tokenOfOwnerByIndex}."
      },
      "tokenURI(uint256)": {
        "details": "See {IERC721Metadata-tokenURI}."
      },
      "totalSupply()": {
        "details": "See {IERC721Enumerable-totalSupply}."
      },
      "transferFrom(address,address,uint256)": {
        "details": "See {IERC721-transferFrom}."
      }
    },
    "version": 1
  },
  "userdoc": {
    "kind": "user",
    "methods": {},
    "version": 1
  }
}